{
    "_format": "hh-sol-artifact-1",
    "contractName": "SampleNFTs",
    "sourceName": "contracts/SampleNFTs.sol",
    "abi": [
        {
            "inputs": [],
            "stateMutability": "nonpayable",
            "type": "constructor"
        },
        {
            "anonymous": false,
            "inputs": [
                {
                    "indexed": true,
                    "internalType": "address",
                    "name": "account",
                    "type": "address"
                },
                {
                    "indexed": true,
                    "internalType": "address",
                    "name": "operator",
                    "type": "address"
                },
                {
                    "indexed": false,
                    "internalType": "bool",
                    "name": "approved",
                    "type": "bool"
                }
            ],
            "name": "ApprovalForAll",
            "type": "event"
        },
        {
            "anonymous": false,
            "inputs": [
                {
                    "indexed": true,
                    "internalType": "address",
                    "name": "previousOwner",
                    "type": "address"
                },
                {
                    "indexed": true,
                    "internalType": "address",
                    "name": "newOwner",
                    "type": "address"
                }
            ],
            "name": "OwnershipTransferred",
            "type": "event"
        },
        {
            "anonymous": false,
            "inputs": [
                {
                    "indexed": false,
                    "internalType": "address",
                    "name": "account",
                    "type": "address"
                }
            ],
            "name": "Paused",
            "type": "event"
        },
        {
            "anonymous": false,
            "inputs": [
                {
                    "indexed": true,
                    "internalType": "address",
                    "name": "operator",
                    "type": "address"
                },
                {
                    "indexed": true,
                    "internalType": "address",
                    "name": "from",
                    "type": "address"
                },
                {
                    "indexed": true,
                    "internalType": "address",
                    "name": "to",
                    "type": "address"
                },
                {
                    "indexed": false,
                    "internalType": "uint256[]",
                    "name": "ids",
                    "type": "uint256[]"
                },
                {
                    "indexed": false,
                    "internalType": "uint256[]",
                    "name": "values",
                    "type": "uint256[]"
                }
            ],
            "name": "TransferBatch",
            "type": "event"
        },
        {
            "anonymous": false,
            "inputs": [
                {
                    "indexed": true,
                    "internalType": "address",
                    "name": "operator",
                    "type": "address"
                },
                {
                    "indexed": true,
                    "internalType": "address",
                    "name": "from",
                    "type": "address"
                },
                {
                    "indexed": true,
                    "internalType": "address",
                    "name": "to",
                    "type": "address"
                },
                {
                    "indexed": false,
                    "internalType": "uint256",
                    "name": "id",
                    "type": "uint256"
                },
                {
                    "indexed": false,
                    "internalType": "uint256",
                    "name": "value",
                    "type": "uint256"
                }
            ],
            "name": "TransferSingle",
            "type": "event"
        },
        {
            "anonymous": false,
            "inputs": [
                {
                    "indexed": false,
                    "internalType": "string",
                    "name": "value",
                    "type": "string"
                },
                {
                    "indexed": true,
                    "internalType": "uint256",
                    "name": "id",
                    "type": "uint256"
                }
            ],
            "name": "URI",
            "type": "event"
        },
        {
            "anonymous": false,
            "inputs": [
                {
                    "indexed": false,
                    "internalType": "address",
                    "name": "account",
                    "type": "address"
                }
            ],
            "name": "Unpaused",
            "type": "event"
        },
        {
            "inputs": [],
            "name": "MAX_MINT_QUANTITY",
            "outputs": [
                {
                    "internalType": "uint256",
                    "name": "",
                    "type": "uint256"
                }
            ],
            "stateMutability": "view",
            "type": "function"
        },
        {
            "inputs": [],
            "name": "MAX_SUPPLY",
            "outputs": [
                {
                    "internalType": "uint256",
                    "name": "",
                    "type": "uint256"
                }
            ],
            "stateMutability": "view",
            "type": "function"
        },
        {
            "inputs": [],
            "name": "MINT_PRICE",
            "outputs": [
                {
                    "internalType": "uint256",
                    "name": "",
                    "type": "uint256"
                }
            ],
            "stateMutability": "view",
            "type": "function"
        },
        {
            "inputs": [
                {
                    "internalType": "address",
                    "name": "account",
                    "type": "address"
                },
                {
                    "internalType": "uint256",
                    "name": "id",
                    "type": "uint256"
                }
            ],
            "name": "balanceOf",
            "outputs": [
                {
                    "internalType": "uint256",
                    "name": "",
                    "type": "uint256"
                }
            ],
            "stateMutability": "view",
            "type": "function"
        },
        {
            "inputs": [
                {
                    "internalType": "address[]",
                    "name": "accounts",
                    "type": "address[]"
                },
                {
                    "internalType": "uint256[]",
                    "name": "ids",
                    "type": "uint256[]"
                }
            ],
            "name": "balanceOfBatch",
            "outputs": [
                {
                    "internalType": "uint256[]",
                    "name": "",
                    "type": "uint256[]"
                }
            ],
            "stateMutability": "view",
            "type": "function"
        },
        {
            "inputs": [
                {
                    "internalType": "uint256",
                    "name": "id",
                    "type": "uint256"
                }
            ],
            "name": "exists",
            "outputs": [
                {
                    "internalType": "bool",
                    "name": "",
                    "type": "bool"
                }
            ],
            "stateMutability": "view",
            "type": "function"
        },
        {
            "inputs": [
                {
                    "internalType": "address",
                    "name": "account",
                    "type": "address"
                },
                {
                    "internalType": "address",
                    "name": "operator",
                    "type": "address"
                }
            ],
            "name": "isApprovedForAll",
            "outputs": [
                {
                    "internalType": "bool",
                    "name": "",
                    "type": "bool"
                }
            ],
            "stateMutability": "view",
            "type": "function"
        },
        {
            "inputs": [
                {
                    "internalType": "uint256",
                    "name": "id",
                    "type": "uint256"
                }
            ],
            "name": "mint",
            "outputs": [],
            "stateMutability": "payable",
            "type": "function"
        },
        {
            "inputs": [
                {
                    "internalType": "address",
                    "name": "to",
                    "type": "address"
                },
                {
                    "internalType": "uint256[]",
                    "name": "ids",
                    "type": "uint256[]"
                },
                {
                    "internalType": "uint256[]",
                    "name": "amounts",
                    "type": "uint256[]"
                },
                {
                    "internalType": "bytes",
                    "name": "data",
                    "type": "bytes"
                }
            ],
            "name": "mintBatch",
            "outputs": [],
            "stateMutability": "nonpayable",
            "type": "function"
        },
        {
            "inputs": [],
            "name": "owner",
            "outputs": [
                {
                    "internalType": "address",
                    "name": "",
                    "type": "address"
                }
            ],
            "stateMutability": "view",
            "type": "function"
        },
        {
            "inputs": [],
            "name": "pause",
            "outputs": [],
            "stateMutability": "nonpayable",
            "type": "function"
        },
        {
            "inputs": [],
            "name": "paused",
            "outputs": [
                {
                    "internalType": "bool",
                    "name": "",
                    "type": "bool"
                }
            ],
            "stateMutability": "view",
            "type": "function"
        },
        {
            "inputs": [],
            "name": "renounceOwnership",
            "outputs": [],
            "stateMutability": "nonpayable",
            "type": "function"
        },
        {
            "inputs": [
                {
                    "internalType": "address",
                    "name": "from",
                    "type": "address"
                },
                {
                    "internalType": "address",
                    "name": "to",
                    "type": "address"
                },
                {
                    "internalType": "uint256[]",
                    "name": "ids",
                    "type": "uint256[]"
                },
                {
                    "internalType": "uint256[]",
                    "name": "amounts",
                    "type": "uint256[]"
                },
                {
                    "internalType": "bytes",
                    "name": "data",
                    "type": "bytes"
                }
            ],
            "name": "safeBatchTransferFrom",
            "outputs": [],
            "stateMutability": "nonpayable",
            "type": "function"
        },
        {
            "inputs": [
                {
                    "internalType": "address",
                    "name": "from",
                    "type": "address"
                },
                {
                    "internalType": "address",
                    "name": "to",
                    "type": "address"
                },
                {
                    "internalType": "uint256",
                    "name": "id",
                    "type": "uint256"
                },
                {
                    "internalType": "uint256",
                    "name": "amount",
                    "type": "uint256"
                },
                {
                    "internalType": "bytes",
                    "name": "data",
                    "type": "bytes"
                }
            ],
            "name": "safeTransferFrom",
            "outputs": [],
            "stateMutability": "nonpayable",
            "type": "function"
        },
        {
            "inputs": [
                {
                    "internalType": "address",
                    "name": "operator",
                    "type": "address"
                },
                {
                    "internalType": "bool",
                    "name": "approved",
                    "type": "bool"
                }
            ],
            "name": "setApprovalForAll",
            "outputs": [],
            "stateMutability": "nonpayable",
            "type": "function"
        },
        {
            "inputs": [
                {
                    "internalType": "string",
                    "name": "newuri",
                    "type": "string"
                }
            ],
            "name": "setURI",
            "outputs": [],
            "stateMutability": "nonpayable",
            "type": "function"
        },
        {
            "inputs": [
                {
                    "internalType": "bytes4",
                    "name": "interfaceId",
                    "type": "bytes4"
                }
            ],
            "name": "supportsInterface",
            "outputs": [
                {
                    "internalType": "bool",
                    "name": "",
                    "type": "bool"
                }
            ],
            "stateMutability": "view",
            "type": "function"
        },
        {
            "inputs": [
                {
                    "internalType": "uint256",
                    "name": "id",
                    "type": "uint256"
                }
            ],
            "name": "totalSupply",
            "outputs": [
                {
                    "internalType": "uint256",
                    "name": "",
                    "type": "uint256"
                }
            ],
            "stateMutability": "view",
            "type": "function"
        },
        {
            "inputs": [
                {
                    "internalType": "address",
                    "name": "newOwner",
                    "type": "address"
                }
            ],
            "name": "transferOwnership",
            "outputs": [],
            "stateMutability": "nonpayable",
            "type": "function"
        },
        {
            "inputs": [],
            "name": "unpause",
            "outputs": [],
            "stateMutability": "nonpayable",
            "type": "function"
        },
        {
            "inputs": [
                {
                    "internalType": "uint256",
                    "name": "_id",
                    "type": "uint256"
                }
            ],
            "name": "uri",
            "outputs": [
                {
                    "internalType": "string",
                    "name": "",
                    "type": "string"
                }
            ],
            "stateMutability": "view",
            "type": "function"
        },
        {
            "inputs": [],
            "name": "withdraw",
            "outputs": [],
            "stateMutability": "nonpayable",
            "type": "function"
        }
    ],
    "bytecode": "0x608060405264174876e800600555600160065560646007553480156200002457600080fd5b50604051806060016040528060368152602001620043cf6036913962000050816200009260201b60201c565b506200007162000065620000ae60201b60201c565b620000b660201b60201c565b6000600360146101000a81548160ff02191690831515021790555062000291565b8060029080519060200190620000aa9291906200017c565b5050565b600033905090565b6000600360009054906101000a900473ffffffffffffffffffffffffffffffffffffffff16905081600360006101000a81548173ffffffffffffffffffffffffffffffffffffffff021916908373ffffffffffffffffffffffffffffffffffffffff1602179055508173ffffffffffffffffffffffffffffffffffffffff168173ffffffffffffffffffffffffffffffffffffffff167f8be0079c531659141344cd1fd0a4f28419497f9722a3daafe3b4186f6b6457e060405160405180910390a35050565b8280546200018a906200022c565b90600052602060002090601f016020900481019282620001ae5760008555620001fa565b82601f10620001c957805160ff1916838001178555620001fa565b82800160010185558215620001fa579182015b82811115620001f9578251825591602001919060010190620001dc565b5b5090506200020991906200020d565b5090565b5b80821115620002285760008160009055506001016200020e565b5090565b600060028204905060018216806200024557607f821691505b602082108114156200025c576200025b62000262565b5b50919050565b7f4e487b7100000000000000000000000000000000000000000000000000000000600052602260045260246000fd5b61412e80620002a16000396000f3fe60806040526004361061013f5760003560e01c80635c975abb116100b6578063a22cb4651161006f578063a22cb46514610414578063bd85b0391461043d578063c002d23d1461047a578063e985e9c5146104a5578063f242432a146104e2578063f2fde38b1461050b5761013f565b80635c975abb1461034957806371273bb714610374578063715018a61461039f5780638456cb59146103b65780638da5cb5b146103cd578063a0712d68146103f85761013f565b80632eb2c2d6116101085780632eb2c2d61461024d57806332cb6b0c146102765780633ccfd60b146102a15780633f4ba83a146102b85780634e1273f4146102cf5780634f558e791461030c5761013f565b8062fdd58e1461014457806301ffc9a71461018157806302fe5305146101be5780630e89341c146101e75780631f7fdffa14610224575b600080fd5b34801561015057600080fd5b5061016b60048036038101906101669190612d6f565b610534565b60405161017891906136e6565b60405180910390f35b34801561018d57600080fd5b506101a860048036038101906101a39190612e17565b6105fd565b6040516101b59190613449565b60405180910390f35b3480156101ca57600080fd5b506101e560048036038101906101e09190612e69565b6106df565b005b3480156101f357600080fd5b5061020e60048036038101906102099190612eaa565b6106f3565b60405161021b9190613464565b60405180910390f35b34801561023057600080fd5b5061024b60048036038101906102469190612c88565b610776565b005b34801561025957600080fd5b50610274600480360381019061026f9190612b3a565b610790565b005b34801561028257600080fd5b5061028b610831565b60405161029891906136e6565b60405180910390f35b3480156102ad57600080fd5b506102b6610837565b005b3480156102c457600080fd5b506102cd61088e565b005b3480156102db57600080fd5b506102f660048036038101906102f19190612dab565b6108a0565b60405161030391906133f0565b60405180910390f35b34801561031857600080fd5b50610333600480360381019061032e9190612eaa565b610a51565b6040516103409190613449565b60405180910390f35b34801561035557600080fd5b5061035e610a65565b60405161036b9190613449565b60405180910390f35b34801561038057600080fd5b50610389610a7c565b60405161039691906136e6565b60405180910390f35b3480156103ab57600080fd5b506103b4610a82565b005b3480156103c257600080fd5b506103cb610a96565b005b3480156103d957600080fd5b506103e2610aa8565b6040516103ef9190613313565b60405180910390f35b610412600480360381019061040d9190612eaa565b610ad2565b005b34801561042057600080fd5b5061043b60048036038101906104369190612d33565b610bd3565b005b34801561044957600080fd5b50610464600480360381019061045f9190612eaa565b610be9565b60405161047191906136e6565b60405180910390f35b34801561048657600080fd5b5061048f610c06565b60405161049c91906136e6565b60405180910390f35b3480156104b157600080fd5b506104cc60048036038101906104c79190612afe565b610c0c565b6040516104d99190613449565b60405180910390f35b3480156104ee57600080fd5b5061050960048036038101906105049190612bf9565b610ca0565b005b34801561051757600080fd5b50610532600480360381019061052d9190612ad5565b610d41565b005b60008073ffffffffffffffffffffffffffffffffffffffff168373ffffffffffffffffffffffffffffffffffffffff1614156105a5576040517f08c379a000000000000000000000000000000000000000000000000000000000815260040161059c906134e6565b60405180910390fd5b60008083815260200190815260200160002060008473ffffffffffffffffffffffffffffffffffffffff1673ffffffffffffffffffffffffffffffffffffffff16815260200190815260200160002054905092915050565b60007fd9b67a26000000000000000000000000000000000000000000000000000000007bffffffffffffffffffffffffffffffffffffffffffffffffffffffff1916827bffffffffffffffffffffffffffffffffffffffffffffffffffffffff191614806106c857507f0e89341c000000000000000000000000000000000000000000000000000000007bffffffffffffffffffffffffffffffffffffffffffffffffffffffff1916827bffffffffffffffffffffffffffffffffffffffffffffffffffffffff1916145b806106d857506106d782610dc5565b5b9050919050565b6106e7610e2f565b6106f081610ead565b50565b60606106fe82610a51565b61073d576040517f08c379a000000000000000000000000000000000000000000000000000000000815260040161073490613526565b60405180910390fd5b61074682610ec7565b61074f83610f5b565b6040516020016107609291906132e4565b6040516020818303038152906040529050919050565b61077e610e2f565b61078a8484848461107f565b50505050565b6107986112f8565b73ffffffffffffffffffffffffffffffffffffffff168573ffffffffffffffffffffffffffffffffffffffff1614806107de57506107dd856107d86112f8565b610c0c565b5b61081d576040517f08c379a000000000000000000000000000000000000000000000000000000000815260040161081490613506565b60405180910390fd5b61082a8585858585611300565b5050505050565b60075481565b61083f610e2f565b60004790503373ffffffffffffffffffffffffffffffffffffffff166108fc829081150290604051600060405180830381858888f1935050505015801561088a573d6000803e3d6000fd5b5050565b610896610e2f565b61089e61166e565b565b606081518351146108e6576040517f08c379a00000000000000000000000000000000000000000000000000000000081526004016108dd90613666565b60405180910390fd5b6000835167ffffffffffffffff811115610929577f4e487b7100000000000000000000000000000000000000000000000000000000600052604160045260246000fd5b6040519080825280602002602001820160405280156109575781602001602082028036833780820191505090505b50905060005b8451811015610a46576109f08582815181106109a2577f4e487b7100000000000000000000000000000000000000000000000000000000600052603260045260246000fd5b60200260200101518583815181106109e3577f4e487b7100000000000000000000000000000000000000000000000000000000600052603260045260246000fd5b6020026020010151610534565b828281518110610a29577f4e487b7100000000000000000000000000000000000000000000000000000000600052603260045260246000fd5b60200260200101818152505080610a3f906139f4565b905061095d565b508091505092915050565b600080610a5d83610be9565b119050919050565b6000600360149054906101000a900460ff16905090565b60065481565b610a8a610e2f565b610a9460006116d1565b565b610a9e610e2f565b610aa6611797565b565b6000600360009054906101000a900473ffffffffffffffffffffffffffffffffffffffff16905090565b60018110610b15576040517f08c379a0000000000000000000000000000000000000000000000000000000008152600401610b0c90613646565b60405180910390fd5b6005543414610b59576040517f08c379a0000000000000000000000000000000000000000000000000000000008152600401610b5090613546565b60405180910390fd5b600754600654610b6883610be9565b610b729190613885565b1115610bb3576040517f08c379a0000000000000000000000000000000000000000000000000000000008152600401610baa90613606565b60405180910390fd5b610bd03382600654604051806020016040528060008152506117fa565b50565b610be5610bde6112f8565b83836119ab565b5050565b600060046000838152602001908152602001600020549050919050565b60055481565b6000600160008473ffffffffffffffffffffffffffffffffffffffff1673ffffffffffffffffffffffffffffffffffffffff16815260200190815260200160002060008373ffffffffffffffffffffffffffffffffffffffff1673ffffffffffffffffffffffffffffffffffffffff16815260200190815260200160002060009054906101000a900460ff16905092915050565b610ca86112f8565b73ffffffffffffffffffffffffffffffffffffffff168573ffffffffffffffffffffffffffffffffffffffff161480610cee5750610ced85610ce86112f8565b610c0c565b5b610d2d576040517f08c379a0000000000000000000000000000000000000000000000000000000008152600401610d2490613506565b60405180910390fd5b610d3a8585858585611b18565b5050505050565b610d49610e2f565b600073ffffffffffffffffffffffffffffffffffffffff168173ffffffffffffffffffffffffffffffffffffffff161415610db9576040517f08c379a0000000000000000000000000000000000000000000000000000000008152600401610db0906134c6565b60405180910390fd5b610dc2816116d1565b50565b60007f01ffc9a7000000000000000000000000000000000000000000000000000000007bffffffffffffffffffffffffffffffffffffffffffffffffffffffff1916827bffffffffffffffffffffffffffffffffffffffffffffffffffffffff1916149050919050565b610e376112f8565b73ffffffffffffffffffffffffffffffffffffffff16610e55610aa8565b73ffffffffffffffffffffffffffffffffffffffff1614610eab576040517f08c379a0000000000000000000000000000000000000000000000000000000008152600401610ea2906135c6565b60405180910390fd5b565b8060029080519060200190610ec39291906127cd565b5050565b606060028054610ed690613991565b80601f0160208091040260200160405190810160405280929190818152602001828054610f0290613991565b8015610f4f5780601f10610f2457610100808354040283529160200191610f4f565b820191906000526020600020905b815481529060010190602001808311610f3257829003601f168201915b50505050509050919050565b606060006001610f6a84611db4565b01905060008167ffffffffffffffff811115610faf577f4e487b7100000000000000000000000000000000000000000000000000000000600052604160045260246000fd5b6040519080825280601f01601f191660200182016040528015610fe15781602001600182028036833780820191505090505b509050600082602001820190505b600115611074578080600190039150507f3031323334353637383961626364656600000000000000000000000000000000600a86061a8153600a858161105e577f4e487b7100000000000000000000000000000000000000000000000000000000600052601260045260246000fd5b049450600085141561106f57611074565b610fef565b819350505050919050565b600073ffffffffffffffffffffffffffffffffffffffff168473ffffffffffffffffffffffffffffffffffffffff1614156110ef576040517f08c379a00000000000000000000000000000000000000000000000000000000081526004016110e6906136a6565b60405180910390fd5b8151835114611133576040517f08c379a000000000000000000000000000000000000000000000000000000000815260040161112a90613686565b60405180910390fd5b600061113d6112f8565b905061114e81600087878787611feb565b60005b845181101561125357838181518110611193577f4e487b7100000000000000000000000000000000000000000000000000000000600052603260045260246000fd5b60200260200101516000808784815181106111d7577f4e487b7100000000000000000000000000000000000000000000000000000000600052603260045260246000fd5b6020026020010151815260200190815260200160002060008873ffffffffffffffffffffffffffffffffffffffff1673ffffffffffffffffffffffffffffffffffffffff16815260200190815260200160002060008282546112399190613885565b92505081905550808061124b906139f4565b915050611151565b508473ffffffffffffffffffffffffffffffffffffffff16600073ffffffffffffffffffffffffffffffffffffffff168273ffffffffffffffffffffffffffffffffffffffff167f4a39dc06d4c0dbc64b70af90fd698a233a518aa5d07e595d983b8c0526c8f7fb87876040516112cb929190613412565b60405180910390a46112e281600087878787612009565b6112f181600087878787612011565b5050505050565b600033905090565b8151835114611344576040517f08c379a000000000000000000000000000000000000000000000000000000000815260040161133b90613686565b60405180910390fd5b600073ffffffffffffffffffffffffffffffffffffffff168473ffffffffffffffffffffffffffffffffffffffff1614156113b4576040517f08c379a00000000000000000000000000000000000000000000000000000000081526004016113ab90613586565b60405180910390fd5b60006113be6112f8565b90506113ce818787878787611feb565b60005b84518110156115cb576000858281518110611415577f4e487b7100000000000000000000000000000000000000000000000000000000600052603260045260246000fd5b60200260200101519050600085838151811061145a577f4e487b7100000000000000000000000000000000000000000000000000000000600052603260045260246000fd5b60200260200101519050600080600084815260200190815260200160002060008b73ffffffffffffffffffffffffffffffffffffffff1673ffffffffffffffffffffffffffffffffffffffff168152602001908152602001600020549050818110156114fb576040517f08c379a00000000000000000000000000000000000000000000000000000000081526004016114f2906135a6565b60405180910390fd5b81810360008085815260200190815260200160002060008c73ffffffffffffffffffffffffffffffffffffffff1673ffffffffffffffffffffffffffffffffffffffff168152602001908152602001600020819055508160008085815260200190815260200160002060008b73ffffffffffffffffffffffffffffffffffffffff1673ffffffffffffffffffffffffffffffffffffffff16815260200190815260200160002060008282546115b09190613885565b92505081905550505050806115c4906139f4565b90506113d1565b508473ffffffffffffffffffffffffffffffffffffffff168673ffffffffffffffffffffffffffffffffffffffff168273ffffffffffffffffffffffffffffffffffffffff167f4a39dc06d4c0dbc64b70af90fd698a233a518aa5d07e595d983b8c0526c8f7fb8787604051611642929190613412565b60405180910390a4611658818787878787612009565b611666818787878787612011565b505050505050565b6116766121f8565b6000600360146101000a81548160ff0219169083151502179055507f5db9ee0a495bf2e6ff9c91a7834c1ba4fdd244a5e8aa4e537bd38aeae4b073aa6116ba6112f8565b6040516116c79190613313565b60405180910390a1565b6000600360009054906101000a900473ffffffffffffffffffffffffffffffffffffffff16905081600360006101000a81548173ffffffffffffffffffffffffffffffffffffffff021916908373ffffffffffffffffffffffffffffffffffffffff1602179055508173ffffffffffffffffffffffffffffffffffffffff168173ffffffffffffffffffffffffffffffffffffffff167f8be0079c531659141344cd1fd0a4f28419497f9722a3daafe3b4186f6b6457e060405160405180910390a35050565b61179f612241565b6001600360146101000a81548160ff0219169083151502179055507f62e78cea01bee320cd4e420270b5ea74000d11b0c9f74754ebdbfc544b05a2586117e36112f8565b6040516117f09190613313565b60405180910390a1565b600073ffffffffffffffffffffffffffffffffffffffff168473ffffffffffffffffffffffffffffffffffffffff16141561186a576040517f08c379a0000000000000000000000000000000000000000000000000000000008152600401611861906136a6565b60405180910390fd5b60006118746112f8565b905060006118818561228b565b9050600061188e8561228b565b905061189f83600089858589611feb565b8460008088815260200190815260200160002060008973ffffffffffffffffffffffffffffffffffffffff1673ffffffffffffffffffffffffffffffffffffffff16815260200190815260200160002060008282546118fe9190613885565b925050819055508673ffffffffffffffffffffffffffffffffffffffff16600073ffffffffffffffffffffffffffffffffffffffff168473ffffffffffffffffffffffffffffffffffffffff167fc3d58168c5ae7397731d063d5bbf3d657854427343f4c083240f7aacaa2d0f62898960405161197c929190613701565b60405180910390a461199383600089858589612009565b6119a283600089898989612351565b50505050505050565b8173ffffffffffffffffffffffffffffffffffffffff168373ffffffffffffffffffffffffffffffffffffffff161415611a1a576040517f08c379a0000000000000000000000000000000000000000000000000000000008152600401611a1190613626565b60405180910390fd5b80600160008573ffffffffffffffffffffffffffffffffffffffff1673ffffffffffffffffffffffffffffffffffffffff16815260200190815260200160002060008473ffffffffffffffffffffffffffffffffffffffff1673ffffffffffffffffffffffffffffffffffffffff16815260200190815260200160002060006101000a81548160ff0219169083151502179055508173ffffffffffffffffffffffffffffffffffffffff168373ffffffffffffffffffffffffffffffffffffffff167f17307eab39ab6107e8899845ad3d59bd9653f200f220920489ca2b5937696c3183604051611b0b9190613449565b60405180910390a3505050565b600073ffffffffffffffffffffffffffffffffffffffff168473ffffffffffffffffffffffffffffffffffffffff161415611b88576040517f08c379a0000000000000000000000000000000000000000000000000000000008152600401611b7f90613586565b60405180910390fd5b6000611b926112f8565b90506000611b9f8561228b565b90506000611bac8561228b565b9050611bbc838989858589611feb565b600080600088815260200190815260200160002060008a73ffffffffffffffffffffffffffffffffffffffff1673ffffffffffffffffffffffffffffffffffffffff16815260200190815260200160002054905085811015611c53576040517f08c379a0000000000000000000000000000000000000000000000000000000008152600401611c4a906135a6565b60405180910390fd5b85810360008089815260200190815260200160002060008b73ffffffffffffffffffffffffffffffffffffffff1673ffffffffffffffffffffffffffffffffffffffff168152602001908152602001600020819055508560008089815260200190815260200160002060008a73ffffffffffffffffffffffffffffffffffffffff1673ffffffffffffffffffffffffffffffffffffffff1681526020019081526020016000206000828254611d089190613885565b925050819055508773ffffffffffffffffffffffffffffffffffffffff168973ffffffffffffffffffffffffffffffffffffffff168573ffffffffffffffffffffffffffffffffffffffff167fc3d58168c5ae7397731d063d5bbf3d657854427343f4c083240f7aacaa2d0f628a8a604051611d85929190613701565b60405180910390a4611d9b848a8a86868a612009565b611da9848a8a8a8a8a612351565b505050505050505050565b600080600090507a184f03e93ff9f4daa797ed6e38ed64bf6a1f0100000000000000008310611e38577a184f03e93ff9f4daa797ed6e38ed64bf6a1f0100000000000000008381611e2e577f4e487b7100000000000000000000000000000000000000000000000000000000600052601260045260246000fd5b0492506040810190505b6d04ee2d6d415b85acef81000000008310611e9b576d04ee2d6d415b85acef81000000008381611e91577f4e487b7100000000000000000000000000000000000000000000000000000000600052601260045260246000fd5b0492506020810190505b662386f26fc100008310611ef057662386f26fc100008381611ee6577f4e487b7100000000000000000000000000000000000000000000000000000000600052601260045260246000fd5b0492506010810190505b6305f5e1008310611f3f576305f5e1008381611f35577f4e487b7100000000000000000000000000000000000000000000000000000000600052601260045260246000fd5b0492506008810190505b6127108310611f8a576127108381611f80577f4e487b7100000000000000000000000000000000000000000000000000000000600052601260045260246000fd5b0492506004810190505b60648310611fd35760648381611fc9577f4e487b7100000000000000000000000000000000000000000000000000000000600052601260045260246000fd5b0492506002810190505b600a8310611fe2576001810190505b80915050919050565b611ff3612241565b612001868686868686612538565b505050505050565b505050505050565b6120308473ffffffffffffffffffffffffffffffffffffffff166127a2565b156121f0578373ffffffffffffffffffffffffffffffffffffffff1663bc197c8187878686866040518663ffffffff1660e01b815260040161207695949392919061332e565b602060405180830381600087803b15801561209057600080fd5b505af19250505080156120c157506040513d601f19601f820116820180604052508101906120be9190612e40565b60015b612167576120cd613aca565b806308c379a0141561212a57506120e2614006565b806120ed575061212c565b806040517f08c379a00000000000000000000000000000000000000000000000000000000081526004016121219190613464565b60405180910390fd5b505b6040517f08c379a000000000000000000000000000000000000000000000000000000000815260040161215e906136c6565b60405180910390fd5b63bc197c8160e01b7bffffffffffffffffffffffffffffffffffffffffffffffffffffffff1916817bffffffffffffffffffffffffffffffffffffffffffffffffffffffff1916146121ee576040517f08c379a00000000000000000000000000000000000000000000000000000000081526004016121e590613486565b60405180910390fd5b505b505050505050565b612200610a65565b61223f576040517f08c379a0000000000000000000000000000000000000000000000000000000008152600401612236906134a6565b60405180910390fd5b565b612249610a65565b15612289576040517f08c379a000000000000000000000000000000000000000000000000000000000815260040161228090613566565b60405180910390fd5b565b60606000600167ffffffffffffffff8111156122d0577f4e487b7100000000000000000000000000000000000000000000000000000000600052604160045260246000fd5b6040519080825280602002602001820160405280156122fe5781602001602082028036833780820191505090505b509050828160008151811061233c577f4e487b7100000000000000000000000000000000000000000000000000000000600052603260045260246000fd5b60200260200101818152505080915050919050565b6123708473ffffffffffffffffffffffffffffffffffffffff166127a2565b15612530578373ffffffffffffffffffffffffffffffffffffffff1663f23a6e6187878686866040518663ffffffff1660e01b81526004016123b6959493929190613396565b602060405180830381600087803b1580156123d057600080fd5b505af192505050801561240157506040513d601f19601f820116820180604052508101906123fe9190612e40565b60015b6124a75761240d613aca565b806308c379a0141561246a5750612422614006565b8061242d575061246c565b806040517f08c379a00000000000000000000000000000000000000000000000000000000081526004016124619190613464565b60405180910390fd5b505b6040517f08c379a000000000000000000000000000000000000000000000000000000000815260040161249e906136c6565b60405180910390fd5b63f23a6e6160e01b7bffffffffffffffffffffffffffffffffffffffffffffffffffffffff1916817bffffffffffffffffffffffffffffffffffffffffffffffffffffffff19161461252e576040517f08c379a000000000000000000000000000000000000000000000000000000000815260040161252590613486565b60405180910390fd5b505b505050505050565b6125468686868686866127c5565b600073ffffffffffffffffffffffffffffffffffffffff168573ffffffffffffffffffffffffffffffffffffffff1614156126445760005b8351811015612642578281815181106125c0577f4e487b7100000000000000000000000000000000000000000000000000000000600052603260045260246000fd5b602002602001015160046000868481518110612605577f4e487b7100000000000000000000000000000000000000000000000000000000600052603260045260246000fd5b60200260200101518152602001908152602001600020600082825461262a9190613885565b925050819055508061263b906139f4565b905061257e565b505b600073ffffffffffffffffffffffffffffffffffffffff168473ffffffffffffffffffffffffffffffffffffffff16141561279a5760005b83518110156127985760008482815181106126c0577f4e487b7100000000000000000000000000000000000000000000000000000000600052603260045260246000fd5b602002602001015190506000848381518110612705577f4e487b7100000000000000000000000000000000000000000000000000000000600052603260045260246000fd5b602002602001015190506000600460008481526020019081526020016000205490508181101561276a576040517f08c379a0000000000000000000000000000000000000000000000000000000008152600401612761906135e6565b60405180910390fd5b818103600460008581526020019081526020016000208190555050505080612791906139f4565b905061267c565b505b505050505050565b6000808273ffffffffffffffffffffffffffffffffffffffff163b119050919050565b505050505050565b8280546127d990613991565b90600052602060002090601f0160209004810192826127fb5760008555612842565b82601f1061281457805160ff1916838001178555612842565b82800160010185558215612842579182015b82811115612841578251825591602001919060010190612826565b5b50905061284f9190612853565b5090565b5b8082111561286c576000816000905550600101612854565b5090565b600061288361287e8461374f565b61372a565b905080838252602082019050828560208602820111156128a257600080fd5b60005b858110156128d257816128b888826129c4565b8452602084019350602083019250506001810190506128a5565b5050509392505050565b60006128ef6128ea8461377b565b61372a565b9050808382526020820190508285602086028201111561290e57600080fd5b60005b8581101561293e57816129248882612ac0565b845260208401935060208301925050600181019050612911565b5050509392505050565b600061295b612956846137a7565b61372a565b90508281526020810184848401111561297357600080fd5b61297e84828561394f565b509392505050565b6000612999612994846137d8565b61372a565b9050828152602081018484840111156129b157600080fd5b6129bc84828561394f565b509392505050565b6000813590506129d38161409c565b92915050565b600082601f8301126129ea57600080fd5b81356129fa848260208601612870565b91505092915050565b600082601f830112612a1457600080fd5b8135612a248482602086016128dc565b91505092915050565b600081359050612a3c816140b3565b92915050565b600081359050612a51816140ca565b92915050565b600081519050612a66816140ca565b92915050565b600082601f830112612a7d57600080fd5b8135612a8d848260208601612948565b91505092915050565b600082601f830112612aa757600080fd5b8135612ab7848260208601612986565b91505092915050565b600081359050612acf816140e1565b92915050565b600060208284031215612ae757600080fd5b6000612af5848285016129c4565b91505092915050565b60008060408385031215612b1157600080fd5b6000612b1f858286016129c4565b9250506020612b30858286016129c4565b9150509250929050565b600080600080600060a08688031215612b5257600080fd5b6000612b60888289016129c4565b9550506020612b71888289016129c4565b945050604086013567ffffffffffffffff811115612b8e57600080fd5b612b9a88828901612a03565b935050606086013567ffffffffffffffff811115612bb757600080fd5b612bc388828901612a03565b925050608086013567ffffffffffffffff811115612be057600080fd5b612bec88828901612a6c565b9150509295509295909350565b600080600080600060a08688031215612c1157600080fd5b6000612c1f888289016129c4565b9550506020612c30888289016129c4565b9450506040612c4188828901612ac0565b9350506060612c5288828901612ac0565b925050608086013567ffffffffffffffff811115612c6f57600080fd5b612c7b88828901612a6c565b9150509295509295909350565b60008060008060808587031215612c9e57600080fd5b6000612cac878288016129c4565b945050602085013567ffffffffffffffff811115612cc957600080fd5b612cd587828801612a03565b935050604085013567ffffffffffffffff811115612cf257600080fd5b612cfe87828801612a03565b925050606085013567ffffffffffffffff811115612d1b57600080fd5b612d2787828801612a6c565b91505092959194509250565b60008060408385031215612d4657600080fd5b6000612d54858286016129c4565b9250506020612d6585828601612a2d565b9150509250929050565b60008060408385031215612d8257600080fd5b6000612d90858286016129c4565b9250506020612da185828601612ac0565b9150509250929050565b60008060408385031215612dbe57600080fd5b600083013567ffffffffffffffff811115612dd857600080fd5b612de4858286016129d9565b925050602083013567ffffffffffffffff811115612e0157600080fd5b612e0d85828601612a03565b9150509250929050565b600060208284031215612e2957600080fd5b6000612e3784828501612a42565b91505092915050565b600060208284031215612e5257600080fd5b6000612e6084828501612a57565b91505092915050565b600060208284031215612e7b57600080fd5b600082013567ffffffffffffffff811115612e9557600080fd5b612ea184828501612a96565b91505092915050565b600060208284031215612ebc57600080fd5b6000612eca84828501612ac0565b91505092915050565b6000612edf83836132c6565b60208301905092915050565b612ef4816138db565b82525050565b6000612f0582613819565b612f0f8185613847565b9350612f1a83613809565b8060005b83811015612f4b578151612f328882612ed3565b9750612f3d8361383a565b925050600181019050612f1e565b5085935050505092915050565b612f61816138ed565b82525050565b6000612f7282613824565b612f7c8185613858565b9350612f8c81856020860161395e565b612f9581613aec565b840191505092915050565b6000612fab8261382f565b612fb58185613869565b9350612fc581856020860161395e565b612fce81613aec565b840191505092915050565b6000612fe48261382f565b612fee818561387a565b9350612ffe81856020860161395e565b80840191505092915050565b6000613017602883613869565b915061302282613b0a565b604082019050919050565b600061303a601483613869565b915061304582613b59565b602082019050919050565b600061305d602683613869565b915061306882613b82565b604082019050919050565b6000613080602a83613869565b915061308b82613bd1565b604082019050919050565b60006130a3602e83613869565b91506130ae82613c20565b604082019050919050565b60006130c6601683613869565b91506130d182613c6f565b602082019050919050565b60006130e9601d83613869565b91506130f482613c98565b602082019050919050565b600061310c601083613869565b915061311782613cc1565b602082019050919050565b600061312f602583613869565b915061313a82613cea565b604082019050919050565b6000613152602a83613869565b915061315d82613d39565b604082019050919050565b600061317560058361387a565b915061318082613d88565b600582019050919050565b6000613198602083613869565b91506131a382613db1565b602082019050919050565b60006131bb602883613869565b91506131c682613dda565b604082019050919050565b60006131de601283613869565b91506131e982613e29565b602082019050919050565b6000613201602983613869565b915061320c82613e52565b604082019050919050565b6000613224600983613869565b915061322f82613ea1565b602082019050919050565b6000613247602983613869565b915061325282613eca565b604082019050919050565b600061326a602883613869565b915061327582613f19565b604082019050919050565b600061328d602183613869565b915061329882613f68565b604082019050919050565b60006132b0603483613869565b91506132bb82613fb7565b604082019050919050565b6132cf81613945565b82525050565b6132de81613945565b82525050565b60006132f08285612fd9565b91506132fc8284612fd9565b915061330782613168565b91508190509392505050565b60006020820190506133286000830184612eeb565b92915050565b600060a0820190506133436000830188612eeb565b6133506020830187612eeb565b81810360408301526133628186612efa565b905081810360608301526133768185612efa565b9050818103608083015261338a8184612f67565b90509695505050505050565b600060a0820190506133ab6000830188612eeb565b6133b86020830187612eeb565b6133c560408301866132d5565b6133d260608301856132d5565b81810360808301526133e48184612f67565b90509695505050505050565b6000602082019050818103600083015261340a8184612efa565b905092915050565b6000604082019050818103600083015261342c8185612efa565b905081810360208301526134408184612efa565b90509392505050565b600060208201905061345e6000830184612f58565b92915050565b6000602082019050818103600083015261347e8184612fa0565b905092915050565b6000602082019050818103600083015261349f8161300a565b9050919050565b600060208201905081810360008301526134bf8161302d565b9050919050565b600060208201905081810360008301526134df81613050565b9050919050565b600060208201905081810360008301526134ff81613073565b9050919050565b6000602082019050818103600083015261351f81613096565b9050919050565b6000602082019050818103600083015261353f816130b9565b9050919050565b6000602082019050818103600083015261355f816130dc565b9050919050565b6000602082019050818103600083015261357f816130ff565b9050919050565b6000602082019050818103600083015261359f81613122565b9050919050565b600060208201905081810360008301526135bf81613145565b9050919050565b600060208201905081810360008301526135df8161318b565b9050919050565b600060208201905081810360008301526135ff816131ae565b9050919050565b6000602082019050818103600083015261361f816131d1565b9050919050565b6000602082019050818103600083015261363f816131f4565b9050919050565b6000602082019050818103600083015261365f81613217565b9050919050565b6000602082019050818103600083015261367f8161323a565b9050919050565b6000602082019050818103600083015261369f8161325d565b9050919050565b600060208201905081810360008301526136bf81613280565b9050919050565b600060208201905081810360008301526136df816132a3565b9050919050565b60006020820190506136fb60008301846132d5565b92915050565b600060408201905061371660008301856132d5565b61372360208301846132d5565b9392505050565b6000613734613745565b905061374082826139c3565b919050565b6000604051905090565b600067ffffffffffffffff82111561376a57613769613a9b565b5b602082029050602081019050919050565b600067ffffffffffffffff82111561379657613795613a9b565b5b602082029050602081019050919050565b600067ffffffffffffffff8211156137c2576137c1613a9b565b5b6137cb82613aec565b9050602081019050919050565b600067ffffffffffffffff8211156137f3576137f2613a9b565b5b6137fc82613aec565b9050602081019050919050565b6000819050602082019050919050565b600081519050919050565b600081519050919050565b600081519050919050565b6000602082019050919050565b600082825260208201905092915050565b600082825260208201905092915050565b600082825260208201905092915050565b600081905092915050565b600061389082613945565b915061389b83613945565b9250827fffffffffffffffffffffffffffffffffffffffffffffffffffffffffffffffff038211156138d0576138cf613a3d565b5b828201905092915050565b60006138e682613925565b9050919050565b60008115159050919050565b60007fffffffff0000000000000000000000000000000000000000000000000000000082169050919050565b600073ffffffffffffffffffffffffffffffffffffffff82169050919050565b6000819050919050565b82818337600083830152505050565b60005b8381101561397c578082015181840152602081019050613961565b8381111561398b576000848401525b50505050565b600060028204905060018216806139a957607f821691505b602082108114156139bd576139bc613a6c565b5b50919050565b6139cc82613aec565b810181811067ffffffffffffffff821117156139eb576139ea613a9b565b5b80604052505050565b60006139ff82613945565b91507fffffffffffffffffffffffffffffffffffffffffffffffffffffffffffffffff821415613a3257613a31613a3d565b5b600182019050919050565b7f4e487b7100000000000000000000000000000000000000000000000000000000600052601160045260246000fd5b7f4e487b7100000000000000000000000000000000000000000000000000000000600052602260045260246000fd5b7f4e487b7100000000000000000000000000000000000000000000000000000000600052604160045260246000fd5b600060033d1115613ae95760046000803e613ae6600051613afd565b90505b90565b6000601f19601f8301169050919050565b60008160e01c9050919050565b7f455243313135353a204552433131353552656365697665722072656a6563746560008201527f6420746f6b656e73000000000000000000000000000000000000000000000000602082015250565b7f5061757361626c653a206e6f7420706175736564000000000000000000000000600082015250565b7f4f776e61626c653a206e6577206f776e657220697320746865207a65726f206160008201527f6464726573730000000000000000000000000000000000000000000000000000602082015250565b7f455243313135353a2061646472657373207a65726f206973206e6f742061207660008201527f616c6964206f776e657200000000000000000000000000000000000000000000602082015250565b7f455243313135353a2063616c6c6572206973206e6f7420746f6b656e206f776e60008201527f6572206f7220617070726f766564000000000000000000000000000000000000602082015250565b7f55524c3a206e6f6e6578697374656e7420746f6b656e00000000000000000000600082015250565b7f4e6f7420656e6f756768206d6f6e65792073656e7420746f206d696e74000000600082015250565b7f5061757361626c653a2070617573656400000000000000000000000000000000600082015250565b7f455243313135353a207472616e7366657220746f20746865207a65726f20616460008201527f6472657373000000000000000000000000000000000000000000000000000000602082015250565b7f455243313135353a20696e73756666696369656e742062616c616e636520666f60008201527f72207472616e7366657200000000000000000000000000000000000000000000602082015250565b7f2e6a736f6e000000000000000000000000000000000000000000000000000000600082015250565b7f4f776e61626c653a2063616c6c6572206973206e6f7420746865206f776e6572600082015250565b7f455243313135353a206275726e20616d6f756e74206578636565647320746f7460008201527f616c537570706c79000000000000000000000000000000000000000000000000602082015250565b7f4d617820737570706c7920726561636865640000000000000000000000000000600082015250565b7f455243313135353a2073657474696e6720617070726f76616c2073746174757360008201527f20666f722073656c660000000000000000000000000000000000000000000000602082015250565b7f57726f6e67204e46540000000000000000000000000000000000000000000000600082015250565b7f455243313135353a206163636f756e747320616e6420696473206c656e67746860008201527f206d69736d617463680000000000000000000000000000000000000000000000602082015250565b7f455243313135353a2069647320616e6420616d6f756e7473206c656e6774682060008201527f6d69736d61746368000000000000000000000000000000000000000000000000602082015250565b7f455243313135353a206d696e7420746f20746865207a65726f2061646472657360008201527f7300000000000000000000000000000000000000000000000000000000000000602082015250565b7f455243313135353a207472616e7366657220746f206e6f6e2d4552433131353560008201527f526563656976657220696d706c656d656e746572000000000000000000000000602082015250565b600060443d101561401657614099565b61401e613745565b60043d036004823e80513d602482011167ffffffffffffffff82111715614046575050614099565b808201805167ffffffffffffffff8111156140645750505050614099565b80602083010160043d038501811115614081575050505050614099565b614090826020018501866139c3565b82955050505050505b90565b6140a5816138db565b81146140b057600080fd5b50565b6140bc816138ed565b81146140c757600080fd5b50565b6140d3816138f9565b81146140de57600080fd5b50565b6140ea81613945565b81146140f557600080fd5b5056fea2646970667358221220058785c6a546b5563a3fd00d377b7290d55c146f843dadebc4007a17db08ffbf64736f6c63430008040033697066733a2f2f516d61613654755032733970534b637a48463472775768544b556479677272447338526d595971436a50334879652f",
    "linkReferences": {},
    "deployedLinkReferences": {}
}